{
  "_format": "hh-sol-artifact-1",
  "contractName": "WavePortal",
  "sourceName": "contracts/WavePortal.sol",
  "abi": [
    {
      "inputs": [],
      "stateMutability": "nonpayable",
      "type": "constructor"
    },
    {
      "inputs": [],
      "name": "getTotalWaves",
      "outputs": [
        {
          "internalType": "uint256",
          "name": "",
          "type": "uint256"
        }
      ],
      "stateMutability": "view",
      "type": "function"
    },
    {
      "inputs": [],
      "name": "unwave",
      "outputs": [],
      "stateMutability": "nonpayable",
      "type": "function"
    },
    {
      "inputs": [],
      "name": "wave",
      "outputs": [],
      "stateMutability": "nonpayable",
      "type": "function"
    }
  ],
  "bytecode": "0x608060405234801561001057600080fd5b5061003c6040518060600160405280602481526020016107cd6024913961004160201b6101811760201c565b6101c4565b6100dd816040516024016100559190610142565b6040516020818303038152906040527f41304fac000000000000000000000000000000000000000000000000000000007bffffffffffffffffffffffffffffffffffffffffffffffffffffffff19166020820180517bffffffffffffffffffffffffffffffffffffffffffffffffffffffff83818316178352505050506100e060201b60201c565b50565b60008151905060006a636f6e736f6c652e6c6f679050602083016000808483855afa5050505050565b600061011482610164565b61011e818561016f565b935061012e818560208601610180565b610137816101b3565b840191505092915050565b6000602082019050818103600083015261015c8184610109565b905092915050565b600081519050919050565b600082825260208201905092915050565b60005b8381101561019e578082015181840152602081019050610183565b838111156101ad576000848401525b50505050565b6000601f19601f8301169050919050565b6105fa806101d36000396000f3fe608060405234801561001057600080fd5b50600436106100415760003560e01c80636fe15b44146100465780639a2cdc0814610050578063e39938391461006e575b600080fd5b61004e610078565b005b6100586100d2565b6040516100659190610454565b60405180910390f35b61007661011d565b005b600160008082825461008a919061048b565b925050819055506100d06040518060400160405280600f81526020017f25732068617320776176656420757300000000000000000000000000000000008152503361021a565b565b60006101156040518060400160405280601781526020017f5765206861766520256420746f74616c2077617665732e0000000000000000008152506000546102b6565b600054905090565b600080541061017f57600160008082825461013891906104e1565b9250508190555061017e6040518060400160405280601181526020017f25732068617320756e77617665642075730000000000000000000000000000008152503361021a565b5b565b6102178160405160240161019591906103d2565b6040516020818303038152906040527f41304fac000000000000000000000000000000000000000000000000000000007bffffffffffffffffffffffffffffffffffffffffffffffffffffffff19166020820180517bffffffffffffffffffffffffffffffffffffffffffffffffffffffff8381831617835250505050610352565b50565b6102b282826040516024016102309291906103f4565b6040516020818303038152906040527f319af333000000000000000000000000000000000000000000000000000000007bffffffffffffffffffffffffffffffffffffffffffffffffffffffff19166020820180517bffffffffffffffffffffffffffffffffffffffffffffffffffffffff8381831617835250505050610352565b5050565b61034e82826040516024016102cc929190610424565b6040516020818303038152906040527f9710a9d0000000000000000000000000000000000000000000000000000000007bffffffffffffffffffffffffffffffffffffffffffffffffffffffff19166020820180517bffffffffffffffffffffffffffffffffffffffffffffffffffffffff8381831617835250505050610352565b5050565b60008151905060006a636f6e736f6c652e6c6f679050602083016000808483855afa5050505050565b61038481610515565b82525050565b60006103958261046f565b61039f818561047a565b93506103af818560208601610551565b6103b8816105b3565b840191505092915050565b6103cc81610547565b82525050565b600060208201905081810360008301526103ec818461038a565b905092915050565b6000604082019050818103600083015261040e818561038a565b905061041d602083018461037b565b9392505050565b6000604082019050818103600083015261043e818561038a565b905061044d60208301846103c3565b9392505050565b600060208201905061046960008301846103c3565b92915050565b600081519050919050565b600082825260208201905092915050565b600061049682610547565b91506104a183610547565b9250827fffffffffffffffffffffffffffffffffffffffffffffffffffffffffffffffff038211156104d6576104d5610584565b5b828201905092915050565b60006104ec82610547565b91506104f783610547565b92508282101561050a57610509610584565b5b828203905092915050565b600061052082610527565b9050919050565b600073ffffffffffffffffffffffffffffffffffffffff82169050919050565b6000819050919050565b60005b8381101561056f578082015181840152602081019050610554565b8381111561057e576000848401525b50505050565b7f4e487b7100000000000000000000000000000000000000000000000000000000600052601160045260246000fd5b6000601f19601f830116905091905056fea2646970667358221220fc4cafec3eb7e7ee4a737c7c3220635f2d28747343ec28270e3c1a630dc115ba64736f6c6343000804003357652061726520696e73696465206d792057617665506f7274616c20636f6e7472616374",
  "linkReferences": {},
  "deployedLinkReferences": {}
}